{
  "address": "0x35dAaFeE1f897B2B4413dbca5464Cf561bc583f6",
  "abi": [
    {
      "inputs": [
        {
          "internalType": "address",
          "name": "owner_",
          "type": "address"
        }
      ],
      "stateMutability": "nonpayable",
      "type": "constructor"
    },
    {
      "anonymous": false,
      "inputs": [
        {
          "indexed": false,
          "internalType": "address",
          "name": "proxyAdmin",
          "type": "address"
        },
        {
          "indexed": false,
          "internalType": "address",
          "name": "emission",
          "type": "address"
        },
        {
          "indexed": false,
          "internalType": "address",
          "name": "mentoToken",
          "type": "address"
        },
        {
          "indexed": false,
          "internalType": "address",
          "name": "airgrab",
          "type": "address"
        },
        {
          "indexed": false,
          "internalType": "address",
          "name": "locking",
          "type": "address"
        },
        {
          "indexed": false,
          "internalType": "address",
          "name": "governanceTimelock",
          "type": "address"
        },
        {
          "indexed": false,
          "internalType": "address",
          "name": "mentoGovernor",
          "type": "address"
        }
      ],
      "name": "GovernanceCreated",
      "type": "event"
    },
    {
      "anonymous": false,
      "inputs": [
        {
          "indexed": true,
          "internalType": "address",
          "name": "previousOwner",
          "type": "address"
        },
        {
          "indexed": true,
          "internalType": "address",
          "name": "newOwner",
          "type": "address"
        }
      ],
      "name": "OwnershipTransferred",
      "type": "event"
    },
    {
      "inputs": [],
      "name": "AIRGRAB_DURATION",
      "outputs": [
        {
          "internalType": "uint256",
          "name": "",
          "type": "uint256"
        }
      ],
      "stateMutability": "view",
      "type": "function"
    },
    {
      "inputs": [],
      "name": "AIRGRAB_LOCK_CLIFF",
      "outputs": [
        {
          "internalType": "uint32",
          "name": "",
          "type": "uint32"
        }
      ],
      "stateMutability": "view",
      "type": "function"
    },
    {
      "inputs": [],
      "name": "AIRGRAB_LOCK_SLOPE",
      "outputs": [
        {
          "internalType": "uint32",
          "name": "",
          "type": "uint32"
        }
      ],
      "stateMutability": "view",
      "type": "function"
    },
    {
      "inputs": [],
      "name": "FRACTAL_MAX_AGE",
      "outputs": [
        {
          "internalType": "uint256",
          "name": "",
          "type": "uint256"
        }
      ],
      "stateMutability": "view",
      "type": "function"
    },
    {
      "inputs": [],
      "name": "GOVERNANCE_TIMELOCK_DELAY",
      "outputs": [
        {
          "internalType": "uint256",
          "name": "",
          "type": "uint256"
        }
      ],
      "stateMutability": "view",
      "type": "function"
    },
    {
      "inputs": [],
      "name": "GOVERNOR_PROPOSAL_THRESHOLD",
      "outputs": [
        {
          "internalType": "uint256",
          "name": "",
          "type": "uint256"
        }
      ],
      "stateMutability": "view",
      "type": "function"
    },
    {
      "inputs": [],
      "name": "GOVERNOR_QUORUM",
      "outputs": [
        {
          "internalType": "uint256",
          "name": "",
          "type": "uint256"
        }
      ],
      "stateMutability": "view",
      "type": "function"
    },
    {
      "inputs": [],
      "name": "GOVERNOR_VOTING_DELAY",
      "outputs": [
        {
          "internalType": "uint256",
          "name": "",
          "type": "uint256"
        }
      ],
      "stateMutability": "view",
      "type": "function"
    },
    {
      "inputs": [],
      "name": "GOVERNOR_VOTING_PERIOD",
      "outputs": [
        {
          "internalType": "uint256",
          "name": "",
          "type": "uint256"
        }
      ],
      "stateMutability": "view",
      "type": "function"
    },
    {
      "inputs": [],
      "name": "airgrab",
      "outputs": [
        {
          "internalType": "contract Airgrab",
          "name": "",
          "type": "address"
        }
      ],
      "stateMutability": "view",
      "type": "function"
    },
    {
      "inputs": [],
      "name": "airgrabEnds",
      "outputs": [
        {
          "internalType": "uint256",
          "name": "",
          "type": "uint256"
        }
      ],
      "stateMutability": "view",
      "type": "function"
    },
    {
      "inputs": [],
      "name": "celoCommunityFund",
      "outputs": [
        {
          "internalType": "address",
          "name": "",
          "type": "address"
        }
      ],
      "stateMutability": "view",
      "type": "function"
    },
    {
      "inputs": [
        {
          "internalType": "address",
          "name": "watchdogMultiSig_",
          "type": "address"
        },
        {
          "internalType": "address",
          "name": "celoCommunityFund_",
          "type": "address"
        },
        {
          "internalType": "bytes32",
          "name": "airgrabRoot",
          "type": "bytes32"
        },
        {
          "internalType": "address",
          "name": "fractalSigner",
          "type": "address"
        },
        {
          "internalType": "address[]",
          "name": "additionalAllocationRecipients",
          "type": "address[]"
        },
        {
          "internalType": "uint256[]",
          "name": "allocationAmounts",
          "type": "uint256[]"
        }
      ],
      "name": "createGovernance",
      "outputs": [],
      "stateMutability": "nonpayable",
      "type": "function"
    },
    {
      "inputs": [],
      "name": "emission",
      "outputs": [
        {
          "internalType": "contract Emission",
          "name": "",
          "type": "address"
        }
      ],
      "stateMutability": "view",
      "type": "function"
    },
    {
      "inputs": [],
      "name": "governanceTimelock",
      "outputs": [
        {
          "internalType": "contract TimelockController",
          "name": "",
          "type": "address"
        }
      ],
      "stateMutability": "view",
      "type": "function"
    },
    {
      "inputs": [],
      "name": "initialized",
      "outputs": [
        {
          "internalType": "bool",
          "name": "",
          "type": "bool"
        }
      ],
      "stateMutability": "view",
      "type": "function"
    },
    {
      "inputs": [],
      "name": "locking",
      "outputs": [
        {
          "internalType": "contract Locking",
          "name": "",
          "type": "address"
        }
      ],
      "stateMutability": "view",
      "type": "function"
    },
    {
      "inputs": [],
      "name": "mentoGovernor",
      "outputs": [
        {
          "internalType": "contract MentoGovernor",
          "name": "",
          "type": "address"
        }
      ],
      "stateMutability": "view",
      "type": "function"
    },
    {
      "inputs": [],
      "name": "mentoToken",
      "outputs": [
        {
          "internalType": "contract MentoToken",
          "name": "",
          "type": "address"
        }
      ],
      "stateMutability": "view",
      "type": "function"
    },
    {
      "inputs": [],
      "name": "owner",
      "outputs": [
        {
          "internalType": "address",
          "name": "",
          "type": "address"
        }
      ],
      "stateMutability": "view",
      "type": "function"
    },
    {
      "inputs": [],
      "name": "proxyAdmin",
      "outputs": [
        {
          "internalType": "contract ProxyAdmin",
          "name": "",
          "type": "address"
        }
      ],
      "stateMutability": "view",
      "type": "function"
    },
    {
      "inputs": [],
      "name": "renounceOwnership",
      "outputs": [],
      "stateMutability": "nonpayable",
      "type": "function"
    },
    {
      "inputs": [
        {
          "internalType": "address",
          "name": "newOwner",
          "type": "address"
        }
      ],
      "name": "transferOwnership",
      "outputs": [],
      "stateMutability": "nonpayable",
      "type": "function"
    },
    {
      "inputs": [],
      "name": "watchdogMultiSig",
      "outputs": [
        {
          "internalType": "address",
          "name": "",
          "type": "address"
        }
      ],
      "stateMutability": "view",
      "type": "function"
    }
  ],
  "transactionHash": "0x88b0d771f5b33ad037773a519dbef576708037248705581cd8996b31dec2ebcc",
  "args": [
    "0xAA963FC97281d9632d96700aB62A4D1340F9a28a"
  ],
  "numDeployments": 4,
  "solcInputHash": "673806e0359841b9f9b0bb70f553d1c9",
  "bytecode": "0x60803461011d57601f6200191d38819003918201601f19168301916001600160401b038311848410176101225780849260209460405283398101031261011d57516001600160a01b038082169081830361011d5761005c33610138565b339060005416036100d957156100855761007590610138565b60405161179d9081620001808239f35b60405162461bcd60e51b815260206004820152602660248201527f4f776e61626c653a206e6577206f776e657220697320746865207a65726f206160448201526564647265737360d01b6064820152608490fd5b606460405162461bcd60e51b815260206004820152602060248201527f4f776e61626c653a2063616c6c6572206973206e6f7420746865206f776e65726044820152fd5b600080fd5b634e487b7160e01b600052604160045260246000fd5b600080546001600160a01b039283166001600160a01b03198216811783559216907f8be0079c531659141344cd1fd0a4f28419497f9722a3daafe3b4186f6b6457e09080a356fe608080604052600436101561001357600080fd5b600090813560e01c90816306e216051461154a575080630f1583a71461051d578063158ef93e146104f75780632eaef68d146104d95780633798db2d146104bd57806339566d7f146104a15780633e47158c146104785780633f49cea81461044f57806358ad5a8b146104265780635beeef6d14610408578063715018a6146103ae5780637d7c8d1514610390578063827c049e14610367578063875ad6351461033e5780638da5cb5b146103175780639044aa29146102fb57806392182359146102d257806396354a93146102a95780639a1fdd79146102805780639b40bb721461025c578063d1f0249b1461023d578063d5a4d23014610214578063ef579c3b146101f65763f2fde38b1461012957600080fd5b346101f35760203660031901126101f357610142611563565b61014a61170f565b6001600160a01b0390811690811561019f57600054826bffffffffffffffffffffffff60a01b821617600055167f8be0079c531659141344cd1fd0a4f28419497f9722a3daafe3b4186f6b6457e0600080a380f35b60405162461bcd60e51b815260206004820152602660248201527f4f776e61626c653a206e6577206f776e657220697320746865207a65726f206160448201526564647265737360d01b6064820152608490fd5b80fd5b50346101f357806003193601126101f3576020600a54604051908152f35b50346101f357806003193601126101f3576008546040516001600160a01b039091168152602090f35b50346101f357806003193601126101f35760206040516301e133808152f35b50346101f357806003193601126101f3576020604051683635c9adc5dea000008152f35b50346101f357806003193601126101f3576005546040516001600160a01b039091168152602090f35b50346101f357806003193601126101f3576002546040516001600160a01b039091168152602090f35b50346101f357806003193601126101f3576009546040516001600160a01b039091168152602090f35b50346101f357806003193601126101f357602060405160028152f35b50346101f357806003193601126101f357546040516001600160a01b039091168152602090f35b50346101f357806003193601126101f3576006546040516001600160a01b039091168152602090f35b50346101f357806003193601126101f3576003546040516001600160a01b039091168152602090f35b50346101f357806003193601126101f35760206040516201d8808152f35b50346101f357806003193601126101f3576103c761170f565b600080546001600160a01b0319811682556001600160a01b03167f8be0079c531659141344cd1fd0a4f28419497f9722a3daafe3b4186f6b6457e08280a380f35b50346101f357806003193601126101f35760206040516202a3008152f35b50346101f357806003193601126101f3576007546040516001600160a01b039091168152602090f35b50346101f357806003193601126101f3576004546040516001600160a01b039091168152602090f35b50346101f357806003193601126101f3576001546040516001600160a01b039091168152602090f35b50346101f357806003193601126101f357602060405160688152f35b50346101f357806003193601126101f357602090604051908152f35b50346101f357806003193601126101f357602060405162ed4e008152f35b50346101f357806003193601126101f357602060ff60095460a01c166040519015158152f35b50346101f35760c03660031901126101f357610537611563565b60243591906001600160a01b03831683036110ff576064356001600160a01b0381168103611546576084359067ffffffffffffffff821161118f573660238301121561118f57816004013561058b816115e6565b9261059960405194856115c4565b8184526024602085019260051b8201019036821161154257602401915b8183106115225750505060a4359467ffffffffffffffff861161120c573660238701121561120c578560040135936105ed856115e6565b946105fb60405196876115c4565b8086526020860180983660248460051b8301011161151e579060248201915b60248460051b8201018310611509575050505061063561170f565b6009549060ff8260a01c166114b857600880546001600160a01b0319166001600160a01b039283161790556001600160a81b0319909116911617600160a01b17600955604051606b60f91b60208201908152602560fa1b60218301523060601b6022830152600160f91b6036830152601782526106b1826115a8565b90519020604051606b60f91b60208201908152602560fa1b60218301523060601b6022830152600360f81b6036830152601782526001600160a01b0390921694916106fb826115a8565b90519020604051606b60f91b60208201908152602560fa1b60218301523060601b6022830152600160fa1b6036830152601782526001600160a01b0390921691610744826115a8565b90519020604051606b60f91b60208201908152602560fa1b60218301523060601b6022830152600360f91b6036830152601782526001600160a01b03909216949161078e826115a8565b90519020604051606b60f91b60208201908152602560fa1b60218301523060601b6022830152600160fb1b6036830152601782526001600160a01b0390921695916107d8826115a8565b90519020604051606b60f91b60208201908152602560fa1b60218301523060601b6022830152600560f91b6036830152601782526001600160a01b039092169491610822826115a8565b60018060a01b039151902016948461084f60405161083f816115a8565b60018152602036818301376115fe565b52604051636df79b0560e01b8152602081600481739D9B3Aa7fFc609148367A6400a961CCAdd097CC65af490811561146b578b91611476575b5060018060a01b03166bffffffffffffffffffffffff60a01b60015416176001556040519863545e7c6160e01b8a528260048b01528560248b015260208a6044817304e20f053a333eb011849173BDEa17ebF24242BF5af4998a1561146b578b9a611421575b50600380546001600160a01b0319166001600160a01b038c169081179091556109179114611635565b87519a60028c018c1161140d5761093060028d016115e6565b9961093e6040519b8c6115c4565b60028d01808c52601f1990610952906115e6565b013660208d01378b5b8a518110156109a9578b610983828d61097b8260018060a01b0392611621565b511692611621565b5260001981146109955760010161095b565b634e487b7160e01b8d52601160045260248dfd5b508b99508a8d866109ba8284611621565b526002810160018201116113f9576109db60018a9296949593960186611621565b5260405193849263395e7ca760e21b84528c606485016060600487015283518091526020608487019401915b8181106113d75750505060209060031985840301602486015251918281520191908c5b8181106113be575050506001600160a01b0390921660448201526020918190038173220Ab057Be0aA9395dBd8A444A0209F81dA4F54F5af480156113b35782908990611369575b600280546001600160a01b0319166001600160a01b03929092169182179055610a9b925014611635565b6301e133804201421161135557426301e1338001600a81905560095460405163073564ab60e41b81526044803560048301526001600160a01b03968716602483015262ed4e0090820152606481019290925260848201899052606860a483015260c482019290925260e4810187905292166101048301526020826101248173764817C0eF018950D8D176399e846aB12E0816e75af480156112c057869061130f575b600480546001600160a01b0319166001600160a01b03929092169182179055610b67925014611635565b604051631dd70c0360e21b815292602084600481734AE57c623eE76385b6671B05FD86B1Af07A0E0685af49384156112185785946112cb575b5060405163874d6d8160e01b8152936020856004816001600160a01b0385165afa9485156112c0578695611288575b50846000198101116112745760018054600254604051637ac512bb60e01b60208201526001600160a01b03918216602482015260001990980163ffffffff16604489015260648801899052608480890193909352918752169067ffffffffffffffff60c08701908111908711176112605760c086016040819052633c56e06b60e11b8152602092909160bf19918891610c769183916001600160a01b031660c48301611671565b030160c08701739D9B3Aa7fFc609148367A6400a961CCAdd097CC65af4938415611218578594611223575b50600780546001600160a01b0319166001600160a01b038616908117909155610cca9114611635565b604051631dd70c0360e21b815260208160048173D505804c8c719A21d0dD98B18d39283c8D973b695af49081156112185785916111d0575b50610d9892602091610dc4604051610d19816115a8565b6001815284368183013760405193610d30856115a8565b60018552853681870137610d43826115fe565b5288610d4e856115fe565b5260015460085460405163672f70c560e01b888201526202a300602482015260a06044820152986001600160a01b03928316968a949390921692610daa92919060c48601906116d2565b848103602319016064860152906116d2565b908a608484015260a483015203601f1981018752866115c4565b604051633c56e06b60e11b81529485928392610dee9291906001600160a01b031660048501611671565b0381739D9B3Aa7fFc609148367A6400a961CCAdd097CC65af491821561113657849261119b575b50600580546001600160a01b0319166001600160a01b038416908117909155610e3e9114611635565b604051631dd70c0360e21b81526020816004817357B55c2C52FE740a714a596417Da68EC629112DE5af4908115611136578491611155575b5060015460405163a291078960e01b60208201526001600160a01b0394851660248201529284166044840152606483018590526201d8806084840152683635c9adc5dea0000060a4840152600260c48085019190915283529192610100808501939092911667ffffffffffffffff841185851017611141576040849052633c56e06b60e11b8452602091849160ff19918791610f22918391906001600160a01b03166101048301611671565b030181739D9B3Aa7fFc609148367A6400a961CCAdd097CC65af4928315611136578493611103575b5050600680546001600160a01b0319166001600160a01b03938416179055506003546005548216929116803b156110ff5781809160246040518094819363f2fde38b60e01b9889845260048401525af180156110be576110f0575b506007546005549192839290916001600160a01b039081169116813b156110c957839160248392604051948593849288845260048401525af19081156110e55783916110ce575b50506001546005546001600160a01b03918216929116823b156110c95760248492836040519586948593845260048401525af180156110be576110aa575b50600154600354600254600454600754600554600654604080516001600160a01b039889168152968816602088015294871694860194909452918516606085015284166080840152831660a083015290911660c08201527f86fb30f018daa8f182a1f4bf8c4d90600738a5089535b749aa95b5236d9387d29060e090a180f35b6110b39061157e565b6101f357808261102a565b6040513d84823e3d90fd5b505050fd5b6110d79061157e565b6110e2578184610fec565b50fd5b6040513d85823e3d90fd5b6110f99061157e565b82610fa5565b5080fd5b61112693506020903d60201161112e575b61111e82856115c4565b010190611652565b828080610f4a565b3d9150611114565b6040513d86823e3d90fd5b634e487b7160e01b86526041600452602486fd5b90506020813d602011611193575b81611170602093836115c4565b8101031261118f57516001600160a01b038116810361118f5784610e76565b8380fd5b3d9150611163565b610e3e9192506111c29060203d6020116111c9575b6111ba81836115c4565b810190611652565b9190610e15565b503d6111b0565b90506020813d602011611210575b816111eb602093836115c4565b8101031261120c57516001600160a01b038116810361120c57610d98610d02565b8480fd5b3d91506111de565b6040513d87823e3d90fd5b610cca9194506112529060203d602011611259575b60c08161124882938386016115c4565b8301019101611652565b9390610ca1565b503d611238565b634e487b7160e01b87526041600452602487fd5b634e487b7160e01b86526011600452602486fd5b9094506020813d6020116112b8575b816112a4602093836115c4565b810103126112b457519386610bcf565b8580fd5b3d9150611297565b6040513d88823e3d90fd5b9093506020813d602011611307575b816112e7602093836115c4565b8101031261120c57516001600160a01b038116810361120c579285610ba0565b3d91506112da565b50906020813d60201161134d575b8161132a602093836115c4565b810103126112b45751906001600160a01b03821682036112b457610b6791610b3d565b3d915061131d565b634e487b7160e01b87526011600452602487fd5b50506020813d6020116113ab575b81611384602093836115c4565b810103126113a757516001600160a01b03811681036113a75781610a9b91610a71565b8780fd5b3d9150611377565b6040513d8a823e3d90fd5b8251845286945060209384019390920191600101610a2a565b82516001600160a01b0316855288965060209485019490920191600101610a07565b634e487b7160e01b8c52601160045260248cfd5b634e487b7160e01b8b52601160045260248bfd5b9099506020813d602011611463575b8161143d602093836115c4565b8101031261145f57516001600160a01b038116810361145f57986109176108ee565b8a80fd5b3d9150611430565b6040513d8d823e3d90fd5b90506020813d6020116114b0575b81611491602093836115c4565b8101031261145f57516001600160a01b038116810361145f5738610888565b3d9150611484565b60405162461bcd60e51b815260206004820152602360248201527f466163746f72793a20676f7665726e616e636520616c726561647920637265616044820152621d195960ea1b6064820152608490fd5b6020806024938535815201930192915061061a565b8880fd5b82356001600160a01b03811681036113a7578152602092830192016105b6565b8680fd5b8280fd5b9050346110ff57816003193601126110ff576020918152f35b600435906001600160a01b038216820361157957565b600080fd5b67ffffffffffffffff811161159257604052565b634e487b7160e01b600052604160045260246000fd5b6040810190811067ffffffffffffffff82111761159257604052565b90601f8019910116810190811067ffffffffffffffff82111761159257604052565b67ffffffffffffffff81116115925760051b60200190565b80511561160b5760200190565b634e487b7160e01b600052603260045260246000fd5b805182101561160b5760209160051b010190565b1561163c57565b634e487b7160e01b600052600160045260246000fd5b9081602091031261157957516001600160a01b03811681036115795790565b9193929060018060a01b03809116835260209416848301526060604083015280519081606084015260005b8281106116be57505060809293506000838284010152601f8019910116010190565b81810186015184820160800152850161169c565b90815180825260208080930193019160005b8281106116f2575050505090565b83516001600160a01b0316855293810193928101926001016116e4565b6000546001600160a01b0316330361172357565b606460405162461bcd60e51b815260206004820152602060248201527f4f776e61626c653a2063616c6c6572206973206e6f7420746865206f776e65726044820152fdfea264697066735822122030a1677a926537d5b3ce1d65dfb80f2188fb29623abf0a4e0fee900eb4ed96f464736f6c63430008120033",
  "deployedBytecode": "0x608080604052600436101561001357600080fd5b600090813560e01c90816306e216051461154a575080630f1583a71461051d578063158ef93e146104f75780632eaef68d146104d95780633798db2d146104bd57806339566d7f146104a15780633e47158c146104785780633f49cea81461044f57806358ad5a8b146104265780635beeef6d14610408578063715018a6146103ae5780637d7c8d1514610390578063827c049e14610367578063875ad6351461033e5780638da5cb5b146103175780639044aa29146102fb57806392182359146102d257806396354a93146102a95780639a1fdd79146102805780639b40bb721461025c578063d1f0249b1461023d578063d5a4d23014610214578063ef579c3b146101f65763f2fde38b1461012957600080fd5b346101f35760203660031901126101f357610142611563565b61014a61170f565b6001600160a01b0390811690811561019f57600054826bffffffffffffffffffffffff60a01b821617600055167f8be0079c531659141344cd1fd0a4f28419497f9722a3daafe3b4186f6b6457e0600080a380f35b60405162461bcd60e51b815260206004820152602660248201527f4f776e61626c653a206e6577206f776e657220697320746865207a65726f206160448201526564647265737360d01b6064820152608490fd5b80fd5b50346101f357806003193601126101f3576020600a54604051908152f35b50346101f357806003193601126101f3576008546040516001600160a01b039091168152602090f35b50346101f357806003193601126101f35760206040516301e133808152f35b50346101f357806003193601126101f3576020604051683635c9adc5dea000008152f35b50346101f357806003193601126101f3576005546040516001600160a01b039091168152602090f35b50346101f357806003193601126101f3576002546040516001600160a01b039091168152602090f35b50346101f357806003193601126101f3576009546040516001600160a01b039091168152602090f35b50346101f357806003193601126101f357602060405160028152f35b50346101f357806003193601126101f357546040516001600160a01b039091168152602090f35b50346101f357806003193601126101f3576006546040516001600160a01b039091168152602090f35b50346101f357806003193601126101f3576003546040516001600160a01b039091168152602090f35b50346101f357806003193601126101f35760206040516201d8808152f35b50346101f357806003193601126101f3576103c761170f565b600080546001600160a01b0319811682556001600160a01b03167f8be0079c531659141344cd1fd0a4f28419497f9722a3daafe3b4186f6b6457e08280a380f35b50346101f357806003193601126101f35760206040516202a3008152f35b50346101f357806003193601126101f3576007546040516001600160a01b039091168152602090f35b50346101f357806003193601126101f3576004546040516001600160a01b039091168152602090f35b50346101f357806003193601126101f3576001546040516001600160a01b039091168152602090f35b50346101f357806003193601126101f357602060405160688152f35b50346101f357806003193601126101f357602090604051908152f35b50346101f357806003193601126101f357602060405162ed4e008152f35b50346101f357806003193601126101f357602060ff60095460a01c166040519015158152f35b50346101f35760c03660031901126101f357610537611563565b60243591906001600160a01b03831683036110ff576064356001600160a01b0381168103611546576084359067ffffffffffffffff821161118f573660238301121561118f57816004013561058b816115e6565b9261059960405194856115c4565b8184526024602085019260051b8201019036821161154257602401915b8183106115225750505060a4359467ffffffffffffffff861161120c573660238701121561120c578560040135936105ed856115e6565b946105fb60405196876115c4565b8086526020860180983660248460051b8301011161151e579060248201915b60248460051b8201018310611509575050505061063561170f565b6009549060ff8260a01c166114b857600880546001600160a01b0319166001600160a01b039283161790556001600160a81b0319909116911617600160a01b17600955604051606b60f91b60208201908152602560fa1b60218301523060601b6022830152600160f91b6036830152601782526106b1826115a8565b90519020604051606b60f91b60208201908152602560fa1b60218301523060601b6022830152600360f81b6036830152601782526001600160a01b0390921694916106fb826115a8565b90519020604051606b60f91b60208201908152602560fa1b60218301523060601b6022830152600160fa1b6036830152601782526001600160a01b0390921691610744826115a8565b90519020604051606b60f91b60208201908152602560fa1b60218301523060601b6022830152600360f91b6036830152601782526001600160a01b03909216949161078e826115a8565b90519020604051606b60f91b60208201908152602560fa1b60218301523060601b6022830152600160fb1b6036830152601782526001600160a01b0390921695916107d8826115a8565b90519020604051606b60f91b60208201908152602560fa1b60218301523060601b6022830152600560f91b6036830152601782526001600160a01b039092169491610822826115a8565b60018060a01b039151902016948461084f60405161083f816115a8565b60018152602036818301376115fe565b52604051636df79b0560e01b815260208160048173__$1be5c555e84625a98b147474e06ecc4bbc$__5af490811561146b578b91611476575b5060018060a01b03166bffffffffffffffffffffffff60a01b60015416176001556040519863545e7c6160e01b8a528260048b01528560248b015260208a60448173__$13a2574f44e54a7dab3e71dc24aa9de4dc$__5af4998a1561146b578b9a611421575b50600380546001600160a01b0319166001600160a01b038c169081179091556109179114611635565b87519a60028c018c1161140d5761093060028d016115e6565b9961093e6040519b8c6115c4565b60028d01808c52601f1990610952906115e6565b013660208d01378b5b8a518110156109a9578b610983828d61097b8260018060a01b0392611621565b511692611621565b5260001981146109955760010161095b565b634e487b7160e01b8d52601160045260248dfd5b508b99508a8d866109ba8284611621565b526002810160018201116113f9576109db60018a9296949593960186611621565b5260405193849263395e7ca760e21b84528c606485016060600487015283518091526020608487019401915b8181106113d75750505060209060031985840301602486015251918281520191908c5b8181106113be575050506001600160a01b0390921660448201526020918190038173__$5d808f928c2955909e4d74009d6aef398d$__5af480156113b35782908990611369575b600280546001600160a01b0319166001600160a01b03929092169182179055610a9b925014611635565b6301e133804201421161135557426301e1338001600a81905560095460405163073564ab60e41b81526044803560048301526001600160a01b03968716602483015262ed4e0090820152606481019290925260848201899052606860a483015260c482019290925260e4810187905292166101048301526020826101248173__$0e4a96c568f92c6d2c3d126320da3566c5$__5af480156112c057869061130f575b600480546001600160a01b0319166001600160a01b03929092169182179055610b67925014611635565b604051631dd70c0360e21b81529260208460048173__$8a2c5cee2c6c796e4780585e651df93c03$__5af49384156112185785946112cb575b5060405163874d6d8160e01b8152936020856004816001600160a01b0385165afa9485156112c0578695611288575b50846000198101116112745760018054600254604051637ac512bb60e01b60208201526001600160a01b03918216602482015260001990980163ffffffff16604489015260648801899052608480890193909352918752169067ffffffffffffffff60c08701908111908711176112605760c086016040819052633c56e06b60e11b8152602092909160bf19918891610c769183916001600160a01b031660c48301611671565b030160c0870173__$1be5c555e84625a98b147474e06ecc4bbc$__5af4938415611218578594611223575b50600780546001600160a01b0319166001600160a01b038616908117909155610cca9114611635565b604051631dd70c0360e21b815260208160048173__$24f004494dd280a864b81e88275c5b0401$__5af49081156112185785916111d0575b50610d9892602091610dc4604051610d19816115a8565b6001815284368183013760405193610d30856115a8565b60018552853681870137610d43826115fe565b5288610d4e856115fe565b5260015460085460405163672f70c560e01b888201526202a300602482015260a06044820152986001600160a01b03928316968a949390921692610daa92919060c48601906116d2565b848103602319016064860152906116d2565b908a608484015260a483015203601f1981018752866115c4565b604051633c56e06b60e11b81529485928392610dee9291906001600160a01b031660048501611671565b038173__$1be5c555e84625a98b147474e06ecc4bbc$__5af491821561113657849261119b575b50600580546001600160a01b0319166001600160a01b038416908117909155610e3e9114611635565b604051631dd70c0360e21b815260208160048173__$4e9d9671f879d759d6da9c6b8784922c60$__5af4908115611136578491611155575b5060015460405163a291078960e01b60208201526001600160a01b0394851660248201529284166044840152606483018590526201d8806084840152683635c9adc5dea0000060a4840152600260c48085019190915283529192610100808501939092911667ffffffffffffffff841185851017611141576040849052633c56e06b60e11b8452602091849160ff19918791610f22918391906001600160a01b03166101048301611671565b03018173__$1be5c555e84625a98b147474e06ecc4bbc$__5af4928315611136578493611103575b5050600680546001600160a01b0319166001600160a01b03938416179055506003546005548216929116803b156110ff5781809160246040518094819363f2fde38b60e01b9889845260048401525af180156110be576110f0575b506007546005549192839290916001600160a01b039081169116813b156110c957839160248392604051948593849288845260048401525af19081156110e55783916110ce575b50506001546005546001600160a01b03918216929116823b156110c95760248492836040519586948593845260048401525af180156110be576110aa575b50600154600354600254600454600754600554600654604080516001600160a01b039889168152968816602088015294871694860194909452918516606085015284166080840152831660a083015290911660c08201527f86fb30f018daa8f182a1f4bf8c4d90600738a5089535b749aa95b5236d9387d29060e090a180f35b6110b39061157e565b6101f357808261102a565b6040513d84823e3d90fd5b505050fd5b6110d79061157e565b6110e2578184610fec565b50fd5b6040513d85823e3d90fd5b6110f99061157e565b82610fa5565b5080fd5b61112693506020903d60201161112e575b61111e82856115c4565b010190611652565b828080610f4a565b3d9150611114565b6040513d86823e3d90fd5b634e487b7160e01b86526041600452602486fd5b90506020813d602011611193575b81611170602093836115c4565b8101031261118f57516001600160a01b038116810361118f5784610e76565b8380fd5b3d9150611163565b610e3e9192506111c29060203d6020116111c9575b6111ba81836115c4565b810190611652565b9190610e15565b503d6111b0565b90506020813d602011611210575b816111eb602093836115c4565b8101031261120c57516001600160a01b038116810361120c57610d98610d02565b8480fd5b3d91506111de565b6040513d87823e3d90fd5b610cca9194506112529060203d602011611259575b60c08161124882938386016115c4565b8301019101611652565b9390610ca1565b503d611238565b634e487b7160e01b87526041600452602487fd5b634e487b7160e01b86526011600452602486fd5b9094506020813d6020116112b8575b816112a4602093836115c4565b810103126112b457519386610bcf565b8580fd5b3d9150611297565b6040513d88823e3d90fd5b9093506020813d602011611307575b816112e7602093836115c4565b8101031261120c57516001600160a01b038116810361120c579285610ba0565b3d91506112da565b50906020813d60201161134d575b8161132a602093836115c4565b810103126112b45751906001600160a01b03821682036112b457610b6791610b3d565b3d915061131d565b634e487b7160e01b87526011600452602487fd5b50506020813d6020116113ab575b81611384602093836115c4565b810103126113a757516001600160a01b03811681036113a75781610a9b91610a71565b8780fd5b3d9150611377565b6040513d8a823e3d90fd5b8251845286945060209384019390920191600101610a2a565b82516001600160a01b0316855288965060209485019490920191600101610a07565b634e487b7160e01b8c52601160045260248cfd5b634e487b7160e01b8b52601160045260248bfd5b9099506020813d602011611463575b8161143d602093836115c4565b8101031261145f57516001600160a01b038116810361145f57986109176108ee565b8a80fd5b3d9150611430565b6040513d8d823e3d90fd5b90506020813d6020116114b0575b81611491602093836115c4565b8101031261145f57516001600160a01b038116810361145f5738610888565b3d9150611484565b60405162461bcd60e51b815260206004820152602360248201527f466163746f72793a20676f7665726e616e636520616c726561647920637265616044820152621d195960ea1b6064820152608490fd5b6020806024938535815201930192915061061a565b8880fd5b82356001600160a01b03811681036113a7578152602092830192016105b6565b8680fd5b8280fd5b9050346110ff57816003193601126110ff576020918152f35b600435906001600160a01b038216820361157957565b600080fd5b67ffffffffffffffff811161159257604052565b634e487b7160e01b600052604160045260246000fd5b6040810190811067ffffffffffffffff82111761159257604052565b90601f8019910116810190811067ffffffffffffffff82111761159257604052565b67ffffffffffffffff81116115925760051b60200190565b80511561160b5760200190565b634e487b7160e01b600052603260045260246000fd5b805182101561160b5760209160051b010190565b1561163c57565b634e487b7160e01b600052600160045260246000fd5b9081602091031261157957516001600160a01b03811681036115795790565b9193929060018060a01b03809116835260209416848301526060604083015280519081606084015260005b8281106116be57505060809293506000838284010152601f8019910116010190565b81810186015184820160800152850161169c565b90815180825260208080930193019160005b8281106116f2575050505090565b83516001600160a01b0316855293810193928101926001016116e4565b6000546001600160a01b0316330361172357565b606460405162461bcd60e51b815260206004820152602060248201527f4f776e61626c653a2063616c6c6572206973206e6f7420746865206f776e65726044820152fdfea264697066735822122030a1677a926537d5b3ce1d65dfb80f2188fb29623abf0a4e0fee900eb4ed96f464736f6c63430008120033",
  "libraries": {
    "AirgrabDeployerLib": "0x764817C0eF018950D8D176399e846aB12E0816e7",
    "EmissionDeployerLib": "0x04e20f053a333eb011849173BDEa17ebF24242BF",
    "LockingDeployerLib": "0x4AE57c623eE76385b6671B05FD86B1Af07A0E068",
    "MentoGovernorDeployerLib": "0x57B55c2C52FE740a714a596417Da68EC629112DE",
    "MentoTokenDeployerLib": "0x220Ab057Be0aA9395dBd8A444A0209F81dA4F54F",
    "TimelockControllerDeployerLib": "0xD505804c8c719A21d0dD98B18d39283c8D973b69",
    "ProxyDeployerLib": "0x9D9B3Aa7fFc609148367A6400a961CCAdd097CC6"
  },
  "devdoc": {
    "author": "Mento Labs",
    "events": {
      "GovernanceCreated(address,address,address,address,address,address,address)": {
        "details": "Event emitted when the governance system has been successfully created"
      }
    },
    "kind": "dev",
    "methods": {
      "constructor": {
        "params": {
          "owner_": "Address of the owner, will be Celo governance"
        }
      },
      "createGovernance(address,address,bytes32,address,address[],uint256[])": {
        "details": "Can only be called by the owner and only once",
        "params": {
          "additionalAllocationRecipients": "Additional addresses to receive an initial token allocation.        Airgrab, and Governance Timelock are automatically added as recipients to the End.",
          "airgrabRoot": "Root hash for the airgrab Merkle tree",
          "allocationAmounts": "percentage amount of tokens to be allocated to the allocation recipients        can be 0 to skip allocation to a hardcoded recipient",
          "celoCommunityFund_": "Address of the Celo community fund that will receive the unclaimed airgrab tokens",
          "fractalSigner": "Signer of fractal kyc",
          "watchdogMultiSig_": "Address of the Mento community's multisig wallet with the veto rights"
        }
      },
      "owner()": {
        "details": "Returns the address of the current owner."
      },
      "renounceOwnership()": {
        "details": "Leaves the contract without owner. It will not be possible to call `onlyOwner` functions anymore. Can only be called by the current owner. NOTE: Renouncing ownership will leave the contract without an owner, thereby removing any functionality that is only available to the owner."
      },
      "transferOwnership(address)": {
        "details": "Transfers ownership of the contract to a new account (`newOwner`). Can only be called by the current owner."
      }
    },
    "title": "GovernanceFactory",
    "version": 1
  },
  "userdoc": {
    "kind": "user",
    "methods": {
      "constructor": {
        "notice": "Creates the factory contract with the owner address"
      },
      "createGovernance(address,address,bytes32,address,address[],uint256[])": {
        "notice": "Creates and initializes the governance system contracts"
      }
    },
    "notice": "Factory for creating and initializing the entire governance system including the MENTO token, locking, emission, airgrab, and governance-related contracts.*",
    "version": 1
  },
  "storageLayout": {
    "storage": [
      {
        "astId": 5375,
        "contract": "lib/mento-core-gov/contracts/governance/GovernanceFactory.sol:GovernanceFactory",
        "label": "_owner",
        "offset": 0,
        "slot": "0",
        "type": "t_address"
      },
      {
        "astId": 793,
        "contract": "lib/mento-core-gov/contracts/governance/GovernanceFactory.sol:GovernanceFactory",
        "label": "proxyAdmin",
        "offset": 0,
        "slot": "1",
        "type": "t_contract(ProxyAdmin)6064"
      },
      {
        "astId": 796,
        "contract": "lib/mento-core-gov/contracts/governance/GovernanceFactory.sol:GovernanceFactory",
        "label": "mentoToken",
        "offset": 0,
        "slot": "2",
        "type": "t_contract(MentoToken)1852"
      },
      {
        "astId": 799,
        "contract": "lib/mento-core-gov/contracts/governance/GovernanceFactory.sol:GovernanceFactory",
        "label": "emission",
        "offset": 0,
        "slot": "3",
        "type": "t_contract(Emission)734"
      },
      {
        "astId": 802,
        "contract": "lib/mento-core-gov/contracts/governance/GovernanceFactory.sol:GovernanceFactory",
        "label": "airgrab",
        "offset": 0,
        "slot": "4",
        "type": "t_contract(Airgrab)492"
      },
      {
        "astId": 805,
        "contract": "lib/mento-core-gov/contracts/governance/GovernanceFactory.sol:GovernanceFactory",
        "label": "governanceTimelock",
        "offset": 0,
        "slot": "5",
        "type": "t_contract(TimelockController)1891"
      },
      {
        "astId": 808,
        "contract": "lib/mento-core-gov/contracts/governance/GovernanceFactory.sol:GovernanceFactory",
        "label": "mentoGovernor",
        "offset": 0,
        "slot": "6",
        "type": "t_contract(MentoGovernor)1676"
      },
      {
        "astId": 811,
        "contract": "lib/mento-core-gov/contracts/governance/GovernanceFactory.sol:GovernanceFactory",
        "label": "locking",
        "offset": 0,
        "slot": "7",
        "type": "t_contract(Locking)2813"
      },
      {
        "astId": 813,
        "contract": "lib/mento-core-gov/contracts/governance/GovernanceFactory.sol:GovernanceFactory",
        "label": "watchdogMultiSig",
        "offset": 0,
        "slot": "8",
        "type": "t_address"
      },
      {
        "astId": 815,
        "contract": "lib/mento-core-gov/contracts/governance/GovernanceFactory.sol:GovernanceFactory",
        "label": "celoCommunityFund",
        "offset": 0,
        "slot": "9",
        "type": "t_address"
      },
      {
        "astId": 817,
        "contract": "lib/mento-core-gov/contracts/governance/GovernanceFactory.sol:GovernanceFactory",
        "label": "initialized",
        "offset": 20,
        "slot": "9",
        "type": "t_bool"
      },
      {
        "astId": 831,
        "contract": "lib/mento-core-gov/contracts/governance/GovernanceFactory.sol:GovernanceFactory",
        "label": "airgrabEnds",
        "offset": 0,
        "slot": "10",
        "type": "t_uint256"
      }
    ],
    "types": {
      "t_address": {
        "encoding": "inplace",
        "label": "address",
        "numberOfBytes": "20"
      },
      "t_bool": {
        "encoding": "inplace",
        "label": "bool",
        "numberOfBytes": "1"
      },
      "t_contract(Airgrab)492": {
        "encoding": "inplace",
        "label": "contract Airgrab",
        "numberOfBytes": "20"
      },
      "t_contract(Emission)734": {
        "encoding": "inplace",
        "label": "contract Emission",
        "numberOfBytes": "20"
      },
      "t_contract(Locking)2813": {
        "encoding": "inplace",
        "label": "contract Locking",
        "numberOfBytes": "20"
      },
      "t_contract(MentoGovernor)1676": {
        "encoding": "inplace",
        "label": "contract MentoGovernor",
        "numberOfBytes": "20"
      },
      "t_contract(MentoToken)1852": {
        "encoding": "inplace",
        "label": "contract MentoToken",
        "numberOfBytes": "20"
      },
      "t_contract(ProxyAdmin)6064": {
        "encoding": "inplace",
        "label": "contract ProxyAdmin",
        "numberOfBytes": "20"
      },
      "t_contract(TimelockController)1891": {
        "encoding": "inplace",
        "label": "contract TimelockController",
        "numberOfBytes": "20"
      },
      "t_uint256": {
        "encoding": "inplace",
        "label": "uint256",
        "numberOfBytes": "32"
      }
    }
  }
}